:020000040800F2
:1080000000040020F38200080DDD000839D00008CC
:1080100081DC0008DDBE0008A9F8000800000000AF
:10802000000000000000000000000000F7ED000864
:10803000F3C000080000000033DE000879F30008F8
:1080400013830008138300081383000813830008B8
:1080500013830008138300081383000813830008A8
:10806000138300084DC2000813830008138300081F
:108070001383000813830008138300081383000888
:10808000138300081383000813830008A5F8000871
:10809000A7F8000813830008138300086DC20008C6
:1080A0001383000813830008138300081383000858
:1080B0001383000813830008138300081383000848
:1080C0001383000813830008138300081383000838
:1080D00013830008E1F4000829F500081383000861
:1080E00049C20008138300081383000813830008A3
:1080F0001383000813830008138300081383000808
:1081000013830008F5E500081383000813830008B3
:1081100013830008138300081383000813830008E7
:1081200013830008138300081383000813830008D7
:1081300000F002F800F0B2F80AA090E8000C8244C7
:108140008344AAF10107DA4501D100F0A7F8AFF2A4
:10815000090EBAE80F0013F0010F18BFFB1A43F025
:10816000010318472CB902004CB902000A444FF031
:10817000000C10F8013B13F0070408BF10F8014B86
:108180001D1108BF10F8015B641E05D010F8016BCB
:10819000641E01F8016BF9D113F0080F1EBF10F82F
:1081A000014BAD1C0C1B09D16D1E58BF01F801CB52
:1081B000FAD505E014F8016B01F8016B6D1EF9D5D5
:1081C0009142D6D3704700000023002400250026EA
:1081D000103A28BF78C1FBD8520728BF30C148BF2A
:1081E0000B6070476E2902F0C383702902F0198575
:1081F000662914F02185652914F01E85672914F07D
:108200001B856129AFF3008003681B0A28BF41F07A
:108210008001692902F03E80642902F03B807529C3
:1082200002F038806F2902F0A784782902F0E584F3
:10823000E92902F04384E42902F04084F52902F0A0
:108240003D84EF2902F0A484F82902F0E484036855
:10825000DB0928BF41F08001632902F0C483732940
:1082600002F0C983E32902F07F87F32902F08487B3
:10827000002070471FB502F020F902F0C7FF04008C
:108280000020002114F0ACFC401C606000200021A4
:1082900014F0BCFCE0601FBD10B510BD02F090FFF3
:1082A0001146FFF7E7FF10F0B9FE03F05FF803B4E3
:1082B000FFF7F2FF03BC03F061F800000B49D1F8AF
:1082C00000C04A685CF8043B1068184442F8040B8C
:1082D0008C4528BFA1F1DC0C8A4228BFA1F1DC0249
:1082E000C1F800C04A6020F00040704708E7002055
:1082F00070470B4880470B4981F308880A480047BC
:10830000FEE7FEE7FEE7FEE7FEE7FEE7FEE7FEE745
:10831000FEE7FEE705480649044A064B70470000A1
:10832000F182000870EF00203181000870E7002022
:1083300070EF002070E70020362070470146087873
:10834000FE4A1070491C08785070491C08789070DB
:10835000491C0878D07010460068704701460878BC
:10836000F64A1070491C0878507010460088704713
:1083700070B50446282014F0DFFB0020F049087097
:1083800014F0B0FB054605E014F0ACFB2070641C53
:10839000681EC5B2002DF7D1204670BD70B50446E9
:1083A0002B2014F0C9FB0020E5490870402014F090
:1083B000EDFB402500BF207814F0E8FB641C681E2C
:1083C000C0B20500F7D1204670BD4FF0FF30DD4947
:1083D00008600020DC490870704710B5FFF7F5FF12
:1083E000DA480068FFF7C4FF10BD10B5044604EB7F
:1083F0008400D249887008E014F040FB14F03EFB82
:10840000CE488078401ECD498870CC4880780028BE
:10841000F2D110BD10B504460A2014F08DFB2046A1
:1084200014F0B4FB14B114F05DFB10BD2046FCE762
:1084300010B5222014F080FB14F054FB0020C0493A
:1084400008702020FFF7E6FF10F0200F0ED0C04884
:108450000078022805DB1B20FFF7DCFF10F07F0F00
:1084600002D10220BA490870002010BD0120B8498D
:1084700008708220F9E770B504460D46B4480078CC
:10848000A04201DBB2480570B1480078A84201D192
:10849000002070BD0120AE490870FFF7C9FF08B188
:1084A0008220F6E78320F4E710B58020A349887086
:1084B00009E0012014F040FB14F014FB9F48807881
:1084C000401E9E4988709D4880780028F1D1052083
:1084D00014F032FB3220FFF788FF10BD70B5044660
:1084E0000D46284614F028FB0020954908702046C8
:1084F00014F04CFB70BD10B50520964908701AE0C9
:1085000006216520FFF7EAFF00209149087014F06A
:10851000E9FA9A2808D106219A20FFF7DFFF14F024
:10852000E1FA652800D10CE0FFF7BEFF894800782A
:10853000401E88490870874800780028E0D18120D3
:1085400010BD4FF4007084490880012014F0F4FA43
:108550000020824908708248007800F0BF008049FE
:10856000087014F0BFFA7B49087008460078A2280A
:108570000CDB78480078B62805DB7948007840F0B5
:108580004000774908700120744908700120704943
:10859000087015210620FFF7A1FF0120FFF725FF36
:1085A00014F0A0FA5F2801D18120C9E70020C7E7B5
:1085B00010B532206149487006E014F05FFA5F4858
:1085C0004078401E5D4948705C4840780028F4D1EE
:1085D000222014F0B1FA14F085FA594800781628D0
:1085E00009D05B480078012805D02020FFF712FF52
:1085F00010F0200F04D1012055490870822010BDD1
:108600005648007898B15248007803280FDB4C4850
:1086100000784A4948700020494908705A2014F0EF
:108620008BFA14F039FA45484078454908704448B7
:10863000007808B91020E2E741480078DFE710B57C
:10864000044600203E490870204614F075FA14F0E4
:1086500023FA3B48007818B910203949087006E021
:1086600037480078142802D100203549087010BD21
:1086700070B504460D460B2014F05EFA204614F047
:1086800085FA284614F082FA70BD10B5FFF7D0FEC7
:1086900008B1822010BD5120FFF7D1FF2848007893
:1086A000F0B903210220FFF7E6FE2C480078A8B1BC
:1086B0003820FFF7AFFE88B1FFF78FFE2348006830
:1086C000007805280AD101213420FFF7D1FF582076
:1086D000FFF7B5FF1A48007800B102E00020D9E7A3
:1086E00000BF02210846FFF7C6FEFFF761FFD1E792
:1086F00017480078122803D103201549087006E0B6
:1087000013480078102802DD1020114908707047C6
:1087100070B504460D46284614F00EFA00200849AC
:108720000870204614F032FA14F0B6F904480078C4
:10873000C0B91020024908701BE00000B4010020FD
:108740005C0100208C010020A50100208401002094
:108750005D010020B0010020800100207E0100208A
:108760005E010020F8480078142802D10020F64964
:10877000087070BD10B5F548007840B13420FFF79F
:1087800049FEF34949780843F149487003E0032161
:108790003420FFF76DFF2B2014F0CEF90020EA49BA
:1087A00008701F2014F0F2F9552014F0EFF953204F
:1087B00014F0ECF9422014F0E9F9432014F0E6F942
:1087C000032014F0E3F9072014F0E0F9052014F079
:1087D000DDF90A2014F0DAF9002014F0D7F9DC49A9
:1087E000C978DC4A1278083A9140C8B214F0CEF940
:1087F000002014F0CBF9002014F0C8F9D4494978CE
:1088000001F0800014F0C2F9D149497801F00F005D
:1088100014F0BCF90A2014F0B9F9CD49497811F0E7
:10882000800F01D0282100E02A21C8B214F0AEF94F
:10883000002014F0ABF9C648407810F0400F10D07B
:10884000C549C87914F0A2F9C349887914F09EF992
:10885000C149487914F09AF9BF49087914F096F99A
:108860000FE0BE49C87814F091F9BC49887814F03B
:108870008DF9BA49487814F089F9B849087814F0A4
:1088800085F9002014F082F9002014F07FF9B04936
:10889000C87814F07BF9002014F078F9002014F067
:1088A00075F9002014F072F9002014F06FF900201F
:1088B00014F06CF9002014F069F9002014F066F946
:1088C0003120FFF7A7FDA2494870044601461E204B
:1088D000FFF7CEFE3320FFF79DFD04464F21FFF743
:1088E00017FF9948007820B99948407880F04000F7
:1088F00000E00020C1B23120FFF7BAFE92480078B4
:1089000038B391480078924948708F48007816280B
:1089100002D05220FFF793FE8B480078162801D131
:10892000822010BD3220FFF775FD802141EA20141E
:1089300041212046FFF7ECFE3320FFF76BFD0411C9
:1089400041212046FFF7E4FE814840787E490870C7
:10895000E7E77F4AD2787F4B1B78093B9A40D1B238
:108960007A4A12780AB1362200E03522D0B2FFF7F7
:108970007FFE7649097809B1372100E03621C8B277
:108980000821FFF775FE2020FFF744FD40F00804A2
:1089900021462020FFF76CFE0020C2E710B570488A
:1089A00000686E49096848407AD00020684988709C
:1089B00000BF6C48007810F0400F10D16548007877
:1089C00009280CD08020624948700120C870FFF748
:1089D000D1FE00B150E0552014F0AEF818E054205C
:1089E00014F0AAF80020584908705C49087814F07F
:1089F000CDF85A49487814F0C9F85849887814F0E5
:108A0000C5F85649C87814F0C1F8012014F0BEF832
:108A100055480068524908604E480078A0F10901A5
:108A2000082088404A49487015E014F035F8464857
:108A300000781D2809D14A490868FFF799FC484980
:108A40000860552014F078F800E015E040484078C0
:108A5000401E3F4948703E4840780028E5D13F48D5
:108A600000683F49086014F017F837480078142868
:108A700001D1002010BD00BF35488078052810DAEC
:108A80003148007816280CD031488078012801DB65
:108A9000FFF78EFD2E488078401C2D49887088E7AE
:108AA00006E0FFF792FCFFF723FEFFF781FDE1E709
:108AB0000020DFE710B500202549887000BF294855
:108AC000007810F0400F19D122480078092815D0FD
:108AD00000201F4948700120C870FFF74BFE00B10D
:108AE00073E0214800681E4908601A480078A0F128
:108AF000090108208840164948703EE0562014F0CD
:108B00001BF80020104908701449087814F03EF84A
:108B10001249487814F03AF81049887814F036F879
:108B20000E49C87814F032F8012014F02FF80E48DE
:108B300000680B49086007480078A0F10901082087
:108B400088400349487028E05C0100207E01002035
:108B5000B4010020BC010020D8E5002088010020DD
:108B60008C0100205E0100208401002013F094FF9E
:108B7000F84800781E280AD100BFF7490868FFF7B7
:108B80000DFCF5490860572013F0D6FF00E01CE00B
:108B9000F2484078401EF1494870F048407800287B
:108BA000E4D1EF480068EC49086013F075FFE9482C
:108BB0000078142808D1EB48007810F0200F01D17C
:108BC00013F061FF002010BD00BFE4488078052845
:108BD0000FDAE048007816280BD0E04880780128AA
:108BE00001DBFFF7E5FCDD488078401CDB4988703D
:108BF00065E7FFF7EAFBFFF77BFDFFF7D9FCE2E74C
:108C000010B53220D54948705AE05320FFF717FDC0
:108C1000D0480078002831D1FFF7DFFBD248006848
:108C20008079042803D10A20D049087014E0CE4886
:108C300000688079082803D10B20CC4908700BE02C
:108C4000C94800688079102803D10C20C7490870F2
:108C500002E00920C5490870C44801780120884015
:108C6000C3490880C1480078A0F10902082090405B
:108C7000C1B23920FFF7FCFC002010BDB5480078D8
:108C8000162803D0B3480078152800D11CE04020F6
:108C9000FFF7ABFBB748007850B1AE480078AF495A
:108CA00088705A20FFF7CBFCAC488078A94908703F
:108CB0000A20FFF79AFBA9484078401EA749487050
:108CC000A64840780028A0D100BFA2480078D4E789
:108CD0002DE9F041A8480078032808DAFFF7D5FC11
:108CE000044614B12046BDE8F081FFF789FFFFF785
:108CF0006CFB0020A149087000BF00209849086063
:108D0000FFF74CFE05463DB1FFF77AFFFFF746FE41
:108D100006460EB13046E6E79848007830B99248EA
:108D20000068007800F0FD00E9281BD0002715E05E
:108D30008D48006800F5DF703844007958B18A49E1
:108D4000096801F5DF71394401F10800FFF7F6FA0F
:108D50008349086007E007F11000C7B2402FE7D150
:108D60009220C0E700BF7E48006885490860FFF791
:108D700015FE8046B8F1000F01D04046B3E77A48AF
:108D80000068007800F0FD00E92801D0A120AAE7E2
:108D900075480068407B7B4908707B490870062055
:108DA0007A49087010E07848007810F0400F00D041
:108DB00012E0754800784006000E73490870734849
:108DC0000078401E71490870704800780028EAD188
:108DD00001206C49087000BF63480068C08A6C4974
:108DE00008800846008890B95F480068406A694971
:108DF000086008460068B0F5803F04D35F480078FB
:108E000008B1A2206FE763480068614908805648AE
:108E10000068C07C54490968097D084307D052485E
:108E200000681330FFF79AFA5B49086004E04E4887
:108E30000068006A584908604B4800681130FFF725
:108E40008DFA4B4909884911491EC9B2084447495E
:108E50000978491F08415149086043480068C089A2
:108E60004F490880084600884949098808444B4909
:108E700009680844474908603B480068007C0128AD
:108E800007DD4448006842490988084441490860B0
:108E900002E000203E4908803F4800683D490968DB
:108EA000401A3A490978C8403E4908604FF6F571C2
:108EB000884211D200203C4908803A48006880B2BC
:108EC00040F6F571884203DA01202F49087010E05E
:108ED00002202D4908700CE023480068008E3249BA
:108EE000088021480068C06A2C4908600320264990
:108EF00008702B48008898B12848006880B11A484B
:108F00000068007C012802DD2148008840B1164835
:108F10000068C07A20B914480068007B022806DA8D
:108F20001648007818B9012014490870E5E61C4875
:108F300000880B49096808441C4908601548006806
:108F40000749096808441A49086010210320FFF7FF
:108F500092FAC8E65C0100208C010020B4010020D8
:108F6000880100205E01002084010020BC01002057
:108F7000800100207E0100205D010020B80100205A
:108F800090010020600100205F0100209801002076
:108F900096010020AC010020640100207001002037
:108FA0007C010020A0010020940100209C010020F1
:108FB0007401002070B5FF480068FF490860FFF7A2
:108FC00079FD05460DB1284670BDFC480088B8B152
:108FD000F9480068F94909880844F7490860FFF72B
:108FE00069FD04460CB12046EEE7F3480068F349FA
:108FF0000988401AF049086008460068ED49086091
:109000000020EF490870DFE72DE9F84304460D46DC
:10901000EC480078022803D120684000009016E058
:10902000E8480078032803D12068800000900EE013
:10903000206880B2ADF80000BDF8000000F001002B
:10904000E1490870BDF8000000EB60000090009856
:1090500080B2DE490988491E0840DD490968084494
:10906000DC490860DC4909780098C840DB49096898
:1090700008440090CF4900980968484014D0D0486F
:10908000007840B1FFF796FF8046B8F1000F02D09C
:109090004046BDE8F883C84900980860FFF77EFCA9
:1090A00006460EB13046F4E785B1FF2D03D14FF0EF
:1090B000FF30009007E0012D02D10020009002E077
:1090C000C748006800900120BD490870BD4800787D
:1090D000022819D1BF4800680088C24908800020D2
:1090E0004880084600884FF6F771884201DB01206E
:1090F00000E00020B449087025B1BDF80000B54972
:10910000096808800020C4E7AE480078032824D10D
:10911000B04800680068B34908609DF8030000F09B
:109120000F00C97801F0F00108438DF80300AD4845
:10913000C07800F00F00AB49C8700846C0780F280F
:1091400001DB012000E000209F4908701DB1A1490A
:1091500000980968086000209BE79DF8010000F076
:109160000F008DF801009A48006898490988084462
:10917000401E98490968884231D0964800680078B6
:10918000984908709348006840784870002D6FD067
:109190008D48007898B19DF800109248007861F3EE
:1091A0001F108C49096808709DF8000000119DF897
:1091B000011040EA011087490968487058E09DF89D
:1091C00000008449096808708648407800F0F00083
:1091D0009DF8011008437F490968487048E07D48C0
:1091E000006800787F49087075B17748007830B121
:1091F0009DF800107B48007861F31F1001E09DF896
:1092000000007449096808706D48007828B1FFF7BC
:10921000D1FE07460FB138463BE766480068401C60
:1092200065490860FFF7BAFB8146B9F1000F01D02C
:1092300048462EE76648006800786A494870BDB124
:109240006148007838B19DF8000000119DF80110C8
:1092500040EA011006E06348407800F0F0009DF815
:10926000011008435A4909680870012054490870E0
:109270005548007868B15B48007800115949497831
:1092800040EA0110574908700846407800114870BC
:1092900005E05448407800F00F0052494870002023
:1092A000504948800846008840F6F771884201DB43
:1092B000012000E00020444908700020E9E610B5D4
:1092C000CBE04748006848490968884201D9B12085
:1092D00010BD43480068401C4149086000214048D7
:1092E000FFF792FE04460CB12046F1E73D480068C6
:1092F00000285ED0334800780128E1D03448006867
:10930000344908602F480078022837D12F48008858
:109310000121C1EB600080B232490880488000BF63
:109320002C480068801C2B490860084600680088AB
:10933000A0B94FF6FF70274909680880294840887E
:1093400027490968084327490988491E401A2449C2
:10935000086001201A4908700020B9E721480088F8
:10936000401E0004000C1F490880D9D11D484088C8
:109370001B49096808431A4908606EE013480088D1
:109380000121C1EBA00080B216490880488000BFCF
:1093900010480068001D0F490860084600680088F2
:1093A000F0BB0C4800688078D0BB0A480068C078E1
:1093B0001CE051E08C010020880100209601002073
:1093C000A50100205F010020A401002080010020F1
:1093D00084010020B8010020BC0100209C01002075
:1093E000AC010020B4010020A001002010F00F0FFC
:1093F00022D14FF6FF70FB4909680880FF20F94928
:1094000009688870F7480068C07840F00F00F54997
:109410000968C870F4484088F4490968084300E0C6
:109420000AE0F1490988491E401AF0490860012004
:10943000EF49087000204BE7EB480088401E00040D
:10944000000CE9490880A3D1E7484088E74909684A
:109450000843E649086000E000E032E700BFFF2172
:10946000E248FFF7D1FD33E710B5FFF728FF0446C8
:10947000B12C01D0204610BD0020DC490860FFF768
:109480001EFFF8E710B5DB48008808B9002010BDC2
:10949000D8480088D84909680844D8490860FFF7C7
:1094A0007DFA04460CB12046F1E7D5480068D0F8B3
:1094B000E801CE4909680844CC49086008460068BC
:1094C000CF490968C1F8E801FFF7F4FADFE72DE9B1
:1094D000FC5F222013F030FB13F004FBC948007836
:1094E000102806DAFFF7F4FB044614B12046BDE865
:1094F000FC9F10210846FEF7BEFF05460DB1284629
:10950000F5E70020C0490870C04800785C2803D007
:10951000BE4800782F2804D1BC48401CBC490860D4
:109520000CE0BA4840783A2847D1B8480078432838
:1095300043DBB648C01CB649086000BFB548007898
:10954000032802D1B448006800E00020B349086055
:10955000AF4800680078002832D14FF0FF30B049A2
:109560000860AC480078032819D00220AB49087085
:10957000AC480068A8490968C9B2401AA9490860FE
:10958000A548006880B2A84909788840A4490860C5
:10959000A6480078A04908608020A44908709F4828
:1095A0000068924908600020A1490860A14908703C
:1095B000122094490870412099E794489449086022
:1095C00007E200BF924800680078E52803D1052033
:1095D0008F49096808709148006878B1934800780D
:1095E000944908708D480068801E93490978884026
:1095F0008C49096808449149086009E08648006878
:109600008C490870874800680978401A8B490860BF
:10961000C5E18A48006879490860FFF7BFF9064646
:109620000EB1304663E7002085490880A6E1744802
:1096300000688349098808446A4908600846006848
:109640000078070000D1C7E1E52F00D191E1052F97
:1096500000D1E5276E4800680078B84204D06C4815
:10966000006800782A287ED100205F49C8708146B2
:1096700050E05C48006810F809005B49C978644A0A
:109680001268515C884200D13BE05748C07860497D
:109690000968085C68B15448C0785D490968085C8D
:1096A0005C2806D05048C07859490968085C2F28C2
:1096B00011D14C48006810F8090020280AD1B9F1EE
:1096C000080F04DA47480068007A202802D14FF0DA
:1096D0000B0922E021E04448C0784D490968085C44
:1096E0002E280CD14048C078082805D03D48006895
:1096F00010F80900202802D14FF0070900E00CE023
:1097000000BF09F1010000F0FF093748C078401C94
:109710003549C870B9F10B0FABDB00BFB9F10B0FC6
:109720005FDB30480068C07A10F0080F59D1002084
:109730004449087000BF2B480068408B37490860D7
:1097400034480078032804D126480068808A3349C9
:1097500048802548C0782E490968085C28B13948F6
:109760000078002800E0F3E078D02C4800681F491A
:10977000086000202E4908602E49087019480068CA
:10978000C07A10F0100F15D04FF0FF302449086058
:1097900013211020FEF76FFE8246BAF1000F01D0B0
:1097A0005046A4E62748007808B1432000E0412055
:1097B000C0B29CE60B480068C069194908601748A8
:1097C000006828B9FF201B49087000201449086070
:1097D00014211020FEF74FFE00900098A0B30098CF
:1097E00085E644E0B8010020B4010020AC0100206F
:1097F000A501002094010020900100208801002094
:10980000840100205D010020A6010020D8E5002091
:10981000A80100205F0100207001002064010020E9
:109820006801002074010020BC01002060010020BC
:109830006C010020B0010020980100207801002078
:109840007C010020A401002000E007E0FC48007833
:1098500008B1432000E00020C0B248E6F948C078D3
:10986000401CF94909680844F7490860AAE6F54828
:10987000C078F5490968085C2A2879D1F34800685E
:10988000C07A10F0080F73D1EE48C078401CEE4942
:109890000968085C002844D100BF00208346E949DC
:1098A000487031E0E948006810F80B00202827D004
:1098B000BBF1080F0AD12E20E2494978E24A12682A
:1098C0005054E0484078401CDE494870DF4800684A
:1098D00010F80B00DB494978DB4A12685054D9482C
:1098E000407840B9D84800680078052803D1E520C1
:1098F000D54909680870D3484078401CD149487060
:109900000BF1010000F0FF0BBBF10B0FCADB0020D5
:10991000CC494978CC4A126850540120C849087093
:1099200009E7C848C078401CC7490968085CFF2897
:1099300010D1C748006860B1C548C07810F0800FEA
:1099400001D013F0A7F8C2480068401EC049086063
:109950000EE0A2E7BB48C078401CBB490968085C20
:10996000401EC1B2B748C078401CB74A12681154B3
:1099700000BFB84800882030B6490880B548008844
:10998000B54909888842FFF652AEB4480068401CC9
:10999000B2490860B2480078401EB1490870B0482A
:1099A000007800287FF435AEAE48006800B911E0B9
:1099B0000021AC48FFF728FB0190019808B10198FD
:1099C00095E59F48007800B104E09E480068A549ED
:1099D0000860F6E500BF00BF4FF0000811E09A48AC
:1099E000006810F808005C2805D09748006810F857
:1099F00008002F2801D1B32079E508F1010000F01B
:109A0000FF089148006810F8080028B18E480068E7
:109A100010F808002A28E2D1422068E570B500203D
:109A20009149087091480078142818DB8B48006829
:109A30008F490860FEF7B2FF04460CB1204670BDA6
:109A40008C480068834909884518E87A10F0100F9F
:109A500005D17F480068E861FFF72CF8EFE70020A8
:109A6000EDE710B581480078122801DAB42010BD66
:109A70007E480078122816D17F480078032812D03B
:109A80007E4800687E4908707148006880B27D4950
:109A900009780841794908607B4800680968C9B2BB
:109AA00008447949086071480078132806DD6F483A
:109AB0000078142805D17548007810B900206A494B
:109AC00008706948007828B1FFF7A8FF04460CB178
:109AD0002046CCE710210846FEF7CDFCC7E72DE96C
:109AE000F04762480078132806DAFFF7F0FC0546D5
:109AF00015B12846BDE8F08710210846FEF7BBFCEB
:109B000006460EB13046F5E75448006858490860EB
:109B1000FEF744FF07460FB13846EBE755480068AB
:109B20004C4909884418E5202070FEF7C3FF8046A1
:109B3000B8F1000F01D04046DCE74A4800684149CF
:109B4000086030B347480068401E4649086000205E
:109B50004F49086000BF01213A48FFF755FA814696
:109B6000B9F1000F01D04846C4E749480068401CDD
:109B700047490860324800780028ECD0FFF71AFA0D
:109B80008246BAF1000F01D05046B3E7FFF77AFCE6
:109B9000B0E70020AEE73E480068801E3D490978E6
:109BA00088403949096808442D49097808443049F2
:109BB000086070472DE9F04F87B0FFF788FC28490F
:109BC00008700846007840B9FFF789FF0646002E66
:109BD00072D0304607B0BDE8F08F214800784228A7
:109BE00002D01F480078F5E71B4800882038194943
:109BF0000988884260D81B48006800286FD0174841
:109C0000016821480068081A1D490978491E084062
:109C1000134908700F48008810F0FF0F06D018484D
:109C20000078401E0E490978884245D100210D4830
:109C3000FFF7EAF98046B8F1000F2DD04046C9E79A
:109C4000A4010020B4010020A8010020B8010020D8
:109C5000680100207C0100208001002078010020A4
:109C6000B001002064010020A60100205D01002059
:109C700088010020840100205F0100207001002085
:109C800060010020BC01002074010020D8E5002004
:109C9000AC01002098010020FF480078002897D0F0
:109CA000FE480068FE490860FFF7DEFB8146B9F117
:109CB000000F02D048468DE78FE00221F748FFF7FA
:109CC000A3F98146B9F1000F01D0484682E7FFF7BA
:109CD00071F98146B9F1000F02D048467AE74AE0AF
:109CE000FEF773FB0020009008E00020ED490968B2
:109CF000009A88540098401C80B20090EA49098874
:109D000000984840F1D10020E8490870FFF743FF70
:109D1000E748008810F0FF0F06D10020E4490880D2
:109D2000E4480068E4490860E4480078E4490870C1
:109D300011E0FEF7BFFE8246BAF1000F01D0504697
:109D400048E7DC480068401CDA490860DC480078D5
:109D5000401EDB490870DA4800780028E9D14FF04E
:109D6000FF30CF490860FFF78DFB02900298002872
:109D700033D002982EE7CE48008810F0FF0F2CD188
:109D8000CD480068401ECC49086008460068C949B3
:109D90000860FEF703FE07460FB138461AE70020B9
:109DA000C349088011E0BF480068C14909884418C8
:109DB0002078E52804D1E07A10F00E0F00D10DE0F4
:109DC000BB4800882030BA490880B9480088B649A5
:109DD00009888842E7DBB220FCE600BFAF48006894
:109DE000AF490860FFF740FB8346BBF1000F01D08D
:109DF0005846EFE6FFF7DEF88346BBF1000F01D0CF
:109E00005846E7E6A6480068A44908604FF0FF30CE
:109E1000A3490860FFF736FB0190019808B101984B
:109E2000D8E6A5480068A3490860FEF7B7FD06908C
:109E3000069808B10698CDE69A4800689C490988BA
:109E40004518002005900BE005980B2801DA20202A
:109E500000E00020059968540598401CC0B20590A8
:109E600005982028F0D343F2210028830120287789
:109E7000002004901EE093480068007800B91CE0C0
:109E80009048006800782E2806D1082004908D485C
:109E90000068401C8B4908608A4800680078049973
:109EA00068540498401CC0B2049086480068401C66
:109EB0008449086004980B28DDDB00BF7748006800
:109EC000688376484088A882FEF7F4FD03900398E3
:109ED00008B103987EE67148006871490860002067
:109EE0007949086079490860704908701421102088
:109EF000FEF7C1FA6EE670B575480078132801DAEE
:109F0000B42070BD6C4800686A490860FEF746FDE1
:109F100005460DB12846F4E700206E4908706148F7
:109F200000686349098844186B48067AE07A6A49F0
:109F3000087296F0FF0003D0E672012065490870B0
:109F40006548C0885E494880E08A6349C8805C48AB
:109F500040884FF6FF71484005D059484088E0825C
:109F600001205C4908705C48808855494880208BF6
:109F700059498880524840884FF6FF71484005D0C3
:109F80004F48408820830120524908705248006899
:109F90005149C860E06908600846C07BFF280AD0C4
:109FA0004D48C06848490860E0610120494908708F
:109FB00000204A4908704748007828B100204549E8
:109FC0000870FEF777FD9CE700209AE710B5FEF7D2
:109FD0002FFA08B1822010BD3D480078032811DA1D
:109FE000FEF753FB40B14020FEF7FFF9FEF74DFBB3
:109FF00004460CB12046EEE7FEF702FE10B1FEF774
:10A00000D7FAE8E736480078A8B15920FEF717FBE1
:10A01000344800782A49487008B90020DBE70A2054
:10A02000FEF7E3F95A20FEF70AFB0220FEF7DDF9FE
:10A0300023484078CFE70020CDE710B517480068E7
:10A0400000B95BE0154800681549086016E000217A
:10A050001348FEF7D9FF04460CB1204610BD0E4848
:10A06000007800B14AE0164800680D4908601A48B7
:10A07000006812490978401A1749086016480068B4
:10A080000E4909788842E2D213480068C0B20B49F1
:10A090000978491E084027E0A4010020640100203F
:10A0A000AC0100208401002080010020B0010020CC
:10A0B0007C01002088010020780100206001002040
:10A0C000B4010020A8010020680100206C010020DC
:10A0D0005D010020A5010020D8E50020A601002098
:10A0E0007E0100205C01002026490870FFF753FD27
:10A0F00025480068254908600020AFE7FF20214976
:10A1000008704FF0FF30214908600020A6E72DE9D4
:10A11000F041FFF7D4F8054625B1B12D02D028460D
:10A12000BDE8F08145B1002019490860FFF7C7F884
:10A1300006460EB13046F3E7FEF73CFF07460FB187
:10A140003846EDE712480068124908601248006876
:10A150000D490860FEF722FC8046B8F1000F01D0DF
:10A160004046DDE70D4800680D4909884418012084
:10A17000207708480068608306484088A082FEF780
:10A1800099FCCDE7B001002088010020D8E500202F
:10A19000AC0100206401002078010020840100202F
:10A1A0007C0100201CB50C46064B7B4469460090A0
:10A1B000204600F0F6FB04460020694600F004FC4F
:10A1C00020461CBD1B0800000FB41CB5084B06AA96
:10A1D0007B4469460090059800F0E3FB04460020AC
:10A1E000694600F0F1FB20461CBC5DF814FB000042
:10A1F000F507000070B5044685690068C10601D501
:10A20000302600E02026C00707D070BDD4E9012128
:10A2100030469047206A401C20626D1EF6D570BD06
:10A2200070B5044685690078C00707D170BDD4E9D0
:10A23000012120209047206A401C20626D1EF6D527
:10A2400070BD70B50C460546012A05D028788006F9
:10A2500000D5EA69002302E0012305E05B1C93427C
:10A2600002D2E05C0028F9D1A869E618C01AA861FA
:10A27000286A184428622846FFF7BCFF04E0D5E9A5
:10A28000012114F8010B9047B442F8D32846FFF798
:10A29000C7FF70BD2DE9F0410646002410687529FE
:10A2A000314615A510D000F0F8FA002802DA404235
:10A2B00012A507E031688A0701D511A502E0490718
:10A2C00004D510A5012401E000F0F0FA00210A23D2
:10A2D00006F1240707E0B0FBF3F203FB1200303075
:10A2E00078541046491C0028F5D123462A463046AA
:10A2F000BDE8F04100F0E3BA000000002D000000CE
:10A300002B000000200000002DE9F05F8946044684
:10A310004FF0000ADFF874B1FB44C0F820A02046DB
:10A32000E1688847002874D0252806D0D4E90121A7
:10A330009047206A401C2062F1E700265F462046D5
:10A34000E16888472028054607DB312D05D27819BA
:10A3500010F8200C08B10643F1E7B00701D526F04C
:10A360000406C4F81CA00027C4F818A02A2D09D0A0
:10A37000284605F005FC38B304EB8708303DC8F8E3
:10A38000185019E059F8041B204604EB870291612C
:10A39000E1688847012F054618D1E069002820DAD6
:10A3A00026F020061DE0D8F8180000EB800005EB31
:10A3B00040003038C8F818002046E1688847054654
:10A3C00005F0DEFB0028EED1012F0AD02E2D08D19A
:10A3D0002046E16888477F1C0546022F46F020068C
:10A3E000C4DBA069002803DA404246F00106A06100
:10A3F000F00701D026F010066C2D0BD0682D09D087
:10A400004C2D39D06A2D35D0742D35D07A2D33D0DE
:10A4100016E038E0E1682F4620468847B8420546F6
:10A4200009D16C2F26D04FF48060E16806432046A6
:10A430008847054604E06C2F1AD04FF4807006431D
:10A440000DB3A5F14100192802D8203546F4006665
:10A450004A462946204626604E46FDF7C3FE80B197
:10A4600001280BD0F61D26F0070000F1080956E779
:10A470004020E4E78020D8E70020D6E706F1040971
:10A480004DE7284652E7206ABDE8F09FDD950200BF
:10A490000B4910B5A1F17C020A4CC2E937123721F1
:10A4A00006E000EB104342F82130074B00FB03406D
:10A4B0000B1EA1F10101F4DC10BD0120E8E7000052
:10A4C000A8E60020E119D666CD0D010010B5431EA7
:10A4D00013F8014F002CFBD105E011F8014B002CC3
:10A4E00003F8014B03D0521EF7D20021197010BDA2
:10A4F00040EA010310B59B070FD1042A0DD310C801
:10A5000008C9121F9C42F8D020BA19BA884201D952
:10A51000012010BD4FF0FF3010BD1AB1D30703D09A
:10A52000521C07E0002010BD10F8013B11F8014B50
:10A530001B1B07D110F8013B11F8014B1B1B01D16C
:10A54000921EF1D1184610BD40EA0103024630B513
:10A550009B0710D14FF0013400E008C208C91D1B51
:10A560009D4315EAC41FF8D013F0FF0102F8011B48
:10A570000DD01B0AF8E711F8013B002B02F8013B54
:10A5800005D011F8013B002B02F8013BF3D130BD9F
:10A590000022CBB210F8011B994200D1421E0029C3
:10A5A000F8D11046704710B5431C02E010F8011BAB
:10A5B00071B18107FAD14FF0013202C88C1A8C4375
:10A5C00014EAC211F9D0C01A0A0603D0C01E10BD89
:10A5D000C01A10BD0A0401D0801E10BD0902FCD0B3
:10A5E000401E10BD40EA010370B59B072ED14FF00D
:10A5F0000136042A2AD308C810C99D1B9D43121F87
:10A6000015EAC61517D0D8B2E1B2401A50EA056172
:10A6100010D198B2A1B2401A50EA05410AD123F0F4
:10A620007F4024F07F41401A50EA052102D1180EE4
:10A63000A0EB146070BDA342DBD018BA21BA8842E7
:10A6400001D9012070BD4FF0FF3070BD0AB9002064
:10A6500070BD10F8013B11F8014B63B1A3420AD160
:10A66000521E08D010F8013B11F8014B1BB1A34258
:10A6700001D1521EEDD1181B70BD421E12F8013FD0
:10A68000002BFBD111F8013B002B02F8013BF9D163
:10A690007047032A40F2308010F0030C00F0158060
:10A6A00011F8013BBCF1020F624498BF11F801CBD5
:10A6B00000F8013B38BF11F8013BA2F1040298BF3A
:10A6C00000F801CB38BF00F8013B11F0030300F0A4
:10A6D000B382083AC0F0088051F8043B083A51F8B8
:10A6E00004CBA0E80810F5E7121D5CBF51F8043B4D
:10A6F00040F8043BAFF30080D20724BF11F8013BC0
:10A7000011F801CB48BF11F8012B24BF00F8013B21
:10A7100000F801CB48BF00F8012B704702F0FF039F
:10A7200043EA032242EA024200F002B84FF000027C
:10A730000429C0F0128010F0030C00F01B80CCF153
:10A74000040CBCF1020F18BF00F8012BA8BF20F8C1
:10A75000022BA1EB0C0100F00DB85FEAC17C24BF15
:10A7600000F8012B00F8012B48BF00F8012B7047BF
:10A770004FF0000200B5134694469646203922BF9A
:10A78000A0E80C50A0E80C50B1F12001BFF4F7AFE5
:10A79000090728BFA0E80C5048BF0CC05DF804EBC7
:10A7A000890028BF40F8042B08BF704748BF20F835
:10A7B000022B11F0804F18BF00F8012B704710B525
:10A7C000044610F0030F08BF11F0030F40F015808E
:10A7D0004FF0013E121FC0F20E8051F8043BA3EB74
:10A7E0000E0C2CEA030C1CEACE1C08BF40F8043BFC
:10A7F000F0D0A1F1040102F10402521E08DB11F8AD
:10A80000013B002B00F8013BF7D11146FFF78EFF0B
:10A81000204610BD4FF0013C50F8042B51F8043B8A
:10A820009A4221D1A2EB0C03934313EACC1317D124
:10A8300050F8042B51F8043B9A4215D1A2EB0C03BB
:10A84000934313EACC130BD150F8042B51F8043B7B
:10A850009A4209D1A2EB0C03934313EACC13DBD049
:10A860004FF00000704700BFD01A01BAB1FA81F171
:10A8700001F0180122FA01F0CB40C1F12001DBB256
:10A88000C0B2C01A2CFA01F3D11A914311EAC311D4
:10A89000E6D1704770477047704709684A0501D58F
:10A8A00040B27047C905FCD500B2704709684A0537
:10A8B00001D5C0B27047C905FCD580B270472DE9FB
:10A8C000F0470D4699469246044600F12408016877
:10A8D000880604D5E06921F01001216000E0012024
:10A8E000A84201DD471B00E00027A1697A1902EBAD
:10A8F0000900081AA0612078C00602D42046FFF79C
:10A9000079FC002608E0D4E901211AF806009047F6
:10A91000206A401C761C20624E45F4DB2078C0067D
:10A920000AD52046FFF766FC06E0D4E90121302075
:10A930009047206A401C2062381EA7F10107F4DC12
:10A9400007E0D4E9012118F805009047206A401C6F
:10A950002062281EA5F10105F3DC2046FFF760FC0C
:10A960002078000602D50220BDE8F0870120FBE731
:10A9700011680268006A530501D508700AE0D30522
:10A9800001D5088006E0130603D5C217C1E900020D
:10A9900000E008600120704701694A1C02610878E4
:10A9A000704700B58FB0CDE901310021059105490F
:10A9B0007944CDE9031011466846FFF7A5FC0FB0B6
:10A9C00000BD0000E5FFFFFF0A6802F8010B0A6006
:10A9D000704710B5436913B1AFF3008001E0FFF792
:10A9E00030FC012010BD127800F124010A70002211
:10A9F0004A700122EDE711684FF0FF32E9E70000ED
:10AA00002DE9FF5F15468A460446DFF8AC80F8441E
:10AA10000027D8E900103E46CDE9001010E03AF8D2
:10AA200016106A4602A800F0ABFB411C07D0217843
:10AA3000890603D5E269391891420DD80744761C7E
:10AA40002078800602D5E069B84205DDAE42E6DB3B
:10AA50003AF816000028E2D1A069C01BA061204688
:10AA6000FFF7C8FBD8E90010CDE90010002017E07F
:10AA70003AF818106A4602A800F082FBB0F1FF3FD6
:10AA800081460BD000250DF1080B05E0D4E901212A
:10AA90001BF8050090476D1C4D45F7D308F10100E8
:10AAA000B0428046E4DB206A384420622046FFF74B
:10AAB000B7FBBDE8FF9F0000FA8E02002DE9F041D0
:10AAC0008046D21D22F007020025D2E90002F529B6
:10AAD00014A612D0002A06DA0023D0EB030063EBA1
:10AAE000020211A608E0D8F800108B0701D50FA6C6
:10AAF00002E0490701D50EA601251146002408F100
:10AB0000240704E000F0D6F830323A55641C50EACD
:10AB10000102F7D12B46324621464046BDE8F041BE
:10AB2000FFF7CDBE000000002D0000002B0000004C
:10AB30002000000030B4002100F1240408E002F0FD
:10AB40000705D208303542EA4372DB086554491CD8
:10AB500052EA0305F3D10468002310A2250708D5A3
:10AB600004F020040C4304D0C46901230CA2641E29
:10AB7000C46130BCFFF7A3BE10B50446214610687F
:10AB8000FFF794FE02462046BDE810400023D1E7BF
:10AB9000D21D22F00701D1E90023CBE7000000001D
:10ABA00030000000F0B40D460188090502D5214CA3
:10ABB0007C4402E01F4C7C440E34002100F124064A
:10ABC00008E002F00F071209E75D42EA03721B0971
:10ABD0007754491C52EA0307F3D102780023120785
:10ABE00004D5702D06D009B1022311342246F0BCE1
:10ABF000FFF765BE01231034F8E770B504460D4633
:10AC000021461068FFF752FE024629462046BDE85D
:10AC100070400023C6E7D21D22F00703D3E90023CA
:10AC2000C0E70368126843F0200303600823C36190
:10AC30000023B7E7608D020010B5203AC0F00B800A
:10AC4000B1E81850203AA0E81850B1E81850A0E830
:10AC50001850BFF4F5AF5FEA027C24BFB1E818508A
:10AC6000A0E8185044BF18C918C0BDE810405FEAFA
:10AC7000827C24BF51F8043B40F8043B08BF704776
:10AC8000D20728BF31F8023B48BF11F8012B28BF7B
:10AC900020F8023B48BF00F8012B7047004870477E
:10ACA00010E7002010B500F0B1FA001D10BD00BF84
:10ACB000311F010030B5B0F10A024FEA900E71F178
:10ACC00000034EEA817EB0EB0E0061EB91014FEA8A
:10ACD000101E4EEA017E10EB0E0041EB11114FEAFF
:10ACE000102E4EEA016E10EB0E0041EB11214FEADF
:10ACF000104E4EEA014E10EB0E0041EB1141401890
:10AD000041F100014FEAD00040EA41704FEAD10121
:10AD100010EB80054FEA810444EA907444EB01048F
:10AD20006D1944EB0404521BA3414FF0000348BFCC
:10AD30000A3200D530BD401C41F1000130BD7047E2
:10AD40002DE9FF4F0C461E464FF0FF378BB0D2E97E
:10AD50000001DDF860800A908A46C1F30A5505B902
:10AD60003D46002108464FF00000BAF1000F00F404
:10AD7000400005DA00EB80004FF4400101EA50008A
:10AD80004FEA9059B9F1010F00DDB9460A9850EA2F
:10AD90004A000ED044F61050A5F2FF3545432F145B
:10ADA000B8F1000F1ED07542291E1EDDC9F1000248
:10ADB0001CE0B8F1010F4FF0000001D0302103E09A
:10ADC000F24305E02154401CB042FBDB3046002238
:10ADD000002121540B99C1F80880C1E900200FB06F
:10ADE000BDE8F08FBD1B6D1CDEE74A4600DA694204
:10ADF00006A800F04FFA06AB93E8070003AB83E820
:10AE0000070050460A9900F0BFFA8DE80700A0F548
:10AE100000501F3800900398002D09DD42F21F01F9
:10AE20004A46084403A90390684600F01EFD08E066
:10AE3000A0F500504A461F3803A90390684600F069
:10AE400028FD8DE807000004000C03D04FF0FF3010
:10AE5000410800E01046B8F1000F03D00022009234
:10AE600015461EE0751E05D4FFF724FF30326255EB
:10AE70006D1EF9D5B3460122084302D000227F1C83
:10AE800004E02078302801D100227F1E002A099793
:10AE900086D01DE0112D07DAFFF70CFF3032625526
:10AEA0006D1C50EA0102F5D1084302D00098C8B1E8
:10AEB0000EE00021681E05E0235C625C63542254AE
:10AEC000401E491C8142F7DBAB46A81B401E09907F
:10AED000002004F80B000B98099AC0F80880C0E91C
:10AEE000002B7CE711264FF0000859E72DE9F04FC1
:10AEF00088460446D21D22F0070191B0D1E9000135
:10AF0000CDE90A0104F028FE02460B98C00F01D0DB
:10AF10002D2007E02068810701D52B2002E02021A9
:10AF200001EAC000032A099001D0072A05DB034685
:10AF30004146204600F06EF909E12078800601D5EF
:10AF4000E06900E00620B8F1650F814606D0B8F14F
:10AF5000660F18D0B8F1670F70D131E00020B9F159
:10AF6000110F009001DB112301E009F101030AAA8E
:10AF700001A90CA8FFF7E4FEDDE90C70002609F139
:10AF80000105834647E001204B4600904FF0004703
:10AF90000AAA01A90CA8FFF7D3FEDDE90DB00C99B0
:10AFA0005D46002610B909F101000D18B9EB050046
:10AFB00003D4C0F1FF3609F10105A5EB09002BE030
:10AFC000B9F1010F01DA4FF001090020B9F1110FB9
:10AFD0000090484601DD112300E003460AAA01A9BA
:10AFE0000CA8FFF7ADFEDDE90C704D460026834648
:10AFF000207800070AD4AB4500DA5D4601A8012D90
:10B0000004DD411911F8011C302907D04F4502DA3F
:10B0100017F1040F04DA012082460FE06D1EEEE7FF
:10B02000002F02DCED1B3E4403E0781CA84200DD4B
:10B030007D1CB81B00F1010A4FF000472078000783
:10B0400003D4AA4501DB4FF0FF3A0021B7F1004FCE
:10B050000DF143088DF8431022D002202B23002F3E
:10B0600001DA7F422D234FF00A0C011EA0F10100EE
:10B0700000DC47B197FBFCF10CFB11720F4630323C
:10B0800008F8012DF1E7A8F10100037021880905F6
:10B0900001D5452100E06521A0F1010800F8011C5F
:10B0A00009980FA9A1EB0807FF1D00B10120411964
:10B0B00001EBEA70A1693844081A401EA0612078AB
:10B0C000C00602D42046FFF795F8099828B1D4E9C4
:10B0D00001219047206A401C20622078C00622D5BA
:10B0E0002046FFF787F81EE0002E04DBB34502DDA3
:10B0F00001A8805D00E03020D4E901219047206A5A
:10B10000401C2062761CAAF101005FEA000A0AD105
:10B1100000F07CF8C0680168405CD4E901219047E8
:10B12000206A401C2062281EA5F10105DCDC07E036
:10B13000D4E9012118F8010B9047206A401C2062D5
:10B14000381EA7F10107F3DC2046FFF769F802205B
:10B1500011B045E610B5436913B1AFF3008001E0CB
:10B16000FFF74EFC012010BD128800F124018284FB
:10B170000022C2840122EDE711684FF0FF32E9E7B7
:10B1800070B516460C460546FFF78CFD036893F82C
:10B190000101012806D0FF2C0FD8185D68B10120ED
:10B1A0002C7070BDD3F8070132462146034428466F
:10B1B000BDE8704003F2071318474FF0FF3070BD31
:10B1C0007546FFF76BFDAE4605006946534620F015
:10B1D0000700854618B020B5FDF79CF8BDE8204073
:10B1E0004FF000064FF000074FF000084FF0000B43
:10B1F00021F00701AC46ACE8C009ACE8C009ACE8F6
:10B20000C009ACE8C0098D4670470000004870478F
:10B2100030E700202DE9F0411F460446032601686F
:10B22000072A01F4006004DB08B116A505E016A5A5
:10B2300003E008B115A500E015A521F0100020607D
:10B24000A069C01EA0610FB1401EA0612046FEF79C
:10B25000D1FF4FB1D4E9012138469047206A401C04
:10B260002062C01C206206E0206AFAE7D4E90121CE
:10B2700015F8010B9047761EF8D22046FEF7D0FF56
:10B28000BDE8F0814E414E006E616E00494E4600B1
:10B29000696E66002DE9F047814616468AB032484D
:10B2A00078440DC88DE80D002F487844801C03AC0D
:10B2B0000DC884E80D0041F69B303722014491FB14
:10B2C000F2F0A0F1800502FB10141B3C02D5644291
:10B2D000012000E00020DFF890A080460027FA441B
:10B2E000AAF1BA0A0DE0E00709D03246684607EB3A
:10B2F00047010AEB810100F0CCFA8DE807006410E9
:10B300007F1C002CEFD1184F7F44A83F18E0E807BE
:10B3100014D007EB04100DF1180A90E80E008AE82B
:10B320000E00C068F04201D198190890324606A973
:10B3300003A800F0AEFA03AB83E807006D10641CAD
:10B34000002DE4D132466946B8F1000F03A802D0BF
:10B3500000F08BFA01E000F09CFAC9E90001C9F89D
:10B3600008200AB0BDE8F087148702000446AFF356
:10B3700000802046FCF79BFF704700000149182021
:10B38000ABBEFEE7260002005FEA400C08BF91F06A
:10B39000000F4FEA8C234FEAC12243EA51514FEA92
:10B3A0001C5018BF00F5F0404FEA300018BF41F0C4
:10B3B00000415FEA6C5C00F02980BCF1FF3F08BFF0
:10B3C00040F080407047130C06BF12044FF0100C81
:10B3D0004FF0000C130E04BF12020CF1080C130FF7
:10B3E00004BF12010CF1040C930F04BF92000CF186
:10B3F000020CD30F04BF52000CF1010C11464FF0A8
:10B400000002A0F11F00A0EB0C00704711F0004FEC
:10B4100008BF704731F000413FF4D5AF0B0C06BFB9
:10B4200009044FF0100C4FF0000C0B0E04BF090282
:10B430000CF1080C0B0F04BF09010CF1040C8B0F6D
:10B4400004BF89000CF1020CCB0F04BF49000CF1C2
:10B45000010CCCF12003A0EB0C0022FA03F302FA5A
:10B460000CF241EA030100F10100704720F07F4C2B
:10B4700080EA030023F07F47ACEB070303F57C531E
:10B4800000F0004003F1FF032DE980494FEA154B1E
:10B4900009B44FEA144325EA0B4E24EA03480FF29D
:10B4A000042606EB132749083E785FEA320203FBC5
:10B4B0000667C7F5000707FB06F64FEA54374FEA61
:10B4C000D64606F1020607FB066CCCF1005C4FEA9B
:10B4D0001C472CEA074C07FB06F40CFB06F504EBB3
:10B4E00015464FEA961634BF00204FF000404FEA51
:10B4F000D13706FB07FC4FEA1C4C0CFB0BF7D21BA9
:10B5000003FB0CF761EB07010CFB0EF7B0EB0740F8
:10B5100072EB17420CFB08F734BFA2EB0742B2EB09
:10B52000074261EB17414FEA0C444FEA910706FBD3
:10B5300007FC4FEA1C4C0CFB0BF7B0EBC74072EB5F
:10B54000573203FB0CF734BFA2EBC742B2EBC74242
:10B5500061EB57310CFB0EF7B0EBC70072EB577283
:10B560000CFB08F734BFA2EBC702B2EBC70261EBDA
:10B570005771039F4FEA816141EA921104EBCC04B9
:10B580004FEAD1374FEA826206FB07FC42EA90128B
:10B590004FEA80604FEA1C4C0CFB0BF7D21B03FBFD
:10B5A0000CF761EB07010CFB0EF7B0EB074072EBF9
:10B5B00017420CFB08F734BFA2EB0742B2EB07427D
:10B5C00061EB17414FEA8C554FEA910704EB9C243D
:10B5D00006FB07FC4FEA1C4C0CFB0BF7B0EBC7401B
:10B5E00072EB573203FB0CF734BFA2EBC742B2EB4E
:10B5F000C74261EB57310CFB0EF7B0EBC70072EBA3
:10B6000057720CFB08F734BFA2EBC702B2EBC702BC
:10B6100061EB577115EB4C254FEA816141EA9211BC
:10B620004FEA82624FEAD13742EA901206FB07FCEA
:10B6300044F100044FEA80604FEA1C4C0CFB0BF70E
:10B64000D21B03FB0CF761EB07010CFB0EF7B0EB11
:10B65000074072EB17420CFB08F734BFA2EB07421E
:10B66000B2EB074261EB174115EB1C154FEA813134
:10B6700041EA92414FEA823242EA90424FEA8030F8
:10B680004FEA0C7644F1000448EA03434EEA0B48C3
:10B690004FF0000EB2EB080C71EB030724BF6246BB
:10B6A00039464EEB0E0E4FF0000B00185241494147
:10B6B0004BEB0B0BB2EB080C71EB03077BF1000BB0
:10B6C00024BF624639464EEB0E0E4FF0000B0018B9
:10B6D000524149414BEB0B0BB2EB080C71EB0307EA
:10B6E0007BF1000B24BF624639464EEB0E0E51EA49
:10B6F000020718BF46F0010616EB0E7655F1000260
:10B7000054F1000103D5BDE88901BDE80088BDE81A
:10B710008901B619BDE80048524141EB0101A3F18E
:10B720000103704780807F7E7D7C7B7A7978777695
:10B7300076757473727171706F6E6E6D6C6C6B6A0E
:10B740006A696868676666656464636362616160AC
:10B75000605F5F5E5E5D5D5C5C5B5B5A5A59595829
:10B760005857575656555555545453535252525193
:10B77000515050504F4F4F4E4E4D4D4D4C4C4C4BE9
:10B780004B4B4A4A4A494949484848474747474630
:10B79000464645454544444444434343434242426C
:10B7A00042414141002B26D4770021D01CB54FEAFD
:10B7B000370703B44FF010004FF010014FF00000B6
:10B7C0000FBC0BF1010BBDE81040BBF1010F08BF2E
:10B7D0005FEA170722BF12F1010211F101014FF0D8
:10B7E000004143F1000300F0004043EA00007047CD
:10B7F000F9D35708DAE746EA064613F1400F4FEA55
:10B8000016461FDD13F1200FDFBF16430A46002145
:10B8100020335B42C8D0C3F1200746EA064602FA4D
:10B8200007F74FEA164646EA0706C3F1200722FA51
:10B8300003F201FA07F721FA03F14FF0000342EA9D
:10B840000702B1E746EA020646EA06464FEA16460E
:10B8500046EA0106BCBF46EA0646360C4FF0000336
:10B860004FF000024FF000019EE72DE9C0489346DB
:10B8700030B491E8380007C831EA400C48BF34EAD8
:10B88000430C03D5FFF7F2FDFFF78CFFF0BCBDE8DA
:10B8900000882DE9C048934630B491E8380007C8C5
:10B8A00010F0804F08BF13F0804F03D100F005F86F
:10B8B000FFF778FFF0BCBDE8008820F07F4780EA02
:10B8C000030023F07F4C07EB0C03A3F57C5300F03F
:10B8D0000040A3F1FE0392F0000F00F0B38095F05A
:10B8E000000F00F077802DE901494FEA11404FEA3F
:10B8F000144621EA004800FB06FC24EA064708FB40
:10B9000006F607FB08F800FB07F718EB06484CEBB8
:10B91000164C4FEA124B18EB07484FEA15464CEB12
:10B92000174022EA0B4E0BFB06FC25EA06470EFBEE
:10B9300006F607FB0EFE0BFB07F71EEB064E4CEB65
:10B94000164C4FF000061EEB074E4CEB174B18EB56
:10B950000B0840F1000018EB0E0B58EB000840F10B
:10B9600000008F1A4FF000013CBFC943661B14BF93
:10B97000B5EB040C00213CBFC943F61B4FEA17444A
:10B980004EEA8E0E27EA04454FEA1C4704FB076285
:10B990002CEA074C05FB07F70CFB05F604FB0CFC37
:10B9A00016EB074642EB174216EB0C4642EB1C42E5
:10B9B0001BEB060658EB0202414146EA9E0601D502
:10B9C000BDE80189B619524141EB0101A3F1010320
:10B9D000BDE801894FEA14454FEA114724EA0546BC
:10B9E00021EA074C05FB07F406FB07F70CFB06F101
:10B9F00005FB0CFC11EB074144EB17444FEA1247DF
:10BA000011EB0C4144EB1C4422EA074C05FB07F206
:10BA100006FB07F70CFB06F605FB0CFC16EB0746CE
:10BA200042EB174216EB0C4642EB1C456A1854F1E8
:10BA3000000148BF7047B619524141EB0101A3F123
:10BA40000103704795F0000F37D04FEA11424FEADB
:10BA5000144721EA024624EA074C02FB07F106FBE1
:10BA600007F70CFB06F402FB0CFC14EB074441EB5C
:10BA700017414FEA154714EB0C4441EB1C4125EAF2
:10BA8000074C02FB07F506FB07F70CFB06F602FB6B
:10BA90000CFC16EB074645EB174516EB0C4645EB41
:10BAA0001C42121951F1000148BF7047B6195241AA
:10BAB00041EB0101A3F1010370474FEA14454FEA3E
:10BAC000114724EA054621EA074C05FB07F106FB6E
:10BAD00007F70CFB06F24FF0000605FB0CFC12EB1F
:10BAE000074241EB174112EB0C4251EB1C4148BF9E
:10BAF0007047921841EB0101A3F101037047000068
:10BB000070B5802461010D4800F02BFF054620210F
:10BB10000B4800F026FF064615B944F0010403E087
:10BB2000012D01D144F0020416B944F0040403E0ED
:10BB3000012E01D144F00804204670BD00080140E8
:10BB40000018014010B52948007878B128480078DD
:10BB500010B1012808D103E001202549087004E054
:10BB600002202349087000E000BF0FE02048007861
:10BB7000012805D0022807D101201D49087004E0E2
:10BB800000201B49087000E000BF00BF1848007883
:10BB900028B94FF44061174800F0EEFE16E0144853
:10BBA0000078012809D18102124800F0E3FE4FF429
:10BBB0000061104800F0E0FE08E00D48007802281F
:10BBC00004D14FF440610B4800F0D4FE07480078E0
:10BBD00028B14FF40061084800F0CCFE04E04FF4B7
:10BBE0000061054800F0C8FE10BD000051010020B2
:10BBF00053010020001001400008014010B586B03C
:10BC0000374838A1026801A8FEF7DEFA3748007805
:10BC10000C2809DA364C3548017820460EF000F839
:10BC2000FF20324908700EE02D48006831498842F3
:10BC300009D2314C2A48016820460DF0F1FF4FF03F
:10BC4000FF30274908602D480078002844D02C4850
:10BC50000088002827D104F085F9002004F0E4F9D9
:10BC60000DF0A4FC00F096F9002024490870254945
:10BC70000880034624A22021009057200CF0BCFF2E
:10BC80000020034620A22021009003200CF0B4FFE6
:10BC9000002003461FA23221009003200CF0ACFFCD
:10BCA00005F032FB1AE017480088002803DD15482C
:10BCB000008813490880002003461CA22021009020
:10BCC00003200CF099FF002003461BA232210090B4
:10BCD00003200CF091FF01E005F016FB06B010BD4B
:10BCE000040000206363203D202564000000002044
:10BCF000DC820020002D31016C94002087000020A0
:10BD00007C000020880000202020202020202020EF
:10BD100000000000202020202020202020202020A3
:10BD2000202020202020202020200000D5FDD4DA53
:10BD3000B2A5D2F400000000D5FDD4DAD6B4D0D03C
:10BD4000D4B6B3CCBFD8D6C6C8CECEF12020000022
:10BD50002DE9F0414F480FF062FE0746002F7CDDD1
:10BD60003D468EE04C4801F0C4FF80466A1E4146C5
:10BD700048480FF074FE0446002C6FD045480FF081
:10BD800039FE0646002E7BD0012C51D0032C04D066
:10BD9000042C09D0052C68D107E000203F49088019
:10BDA000012004F07BF860E05FE0002004F03CF943
:10BDB000012004F073F830460FF08DF8012806D00A
:10BDC000022814D003281DD0042826D11EE03046B6
:10BDD0000FF08AF8804610F0BDF930460FF087F872
:10BDE000804610F0E5F9032004F01EF915E0304616
:10BDF0000FF06EF880462A490DF0A2FF022004F0F1
:10BE000013F90AE0012004F00FF906E024480DF0D0
:10BE1000ADFF022004F008F900BF00BFB08904F0B4
:10BE2000A1F830460FF051F8401C1C4908801CE076
:10BE3000002004F097F81948008808B100F0AAF82B
:10BE400000201649088004F0E9F8022809D10EF014
:10BE5000ADF900201249087001E018E010E000F090
:10BE60007DF9002004F0E0F800BF00BF05F04CFAB7
:10BE7000052C05D104F0D2F8022801D100F06EF9AA
:10BE80006D1C04480FF0B0FDA842BFF66BAFBDE8D3
:10BE9000F0810000FCA50020100100207C000020A3
:10BEA00004B20020014601F00F000A1102EB8202E9
:10BEB00000EB4200C0B2704710B50748007850B19F
:10BEC00005480078401E044908700846007810B9FB
:10BED00000200CF0C1FC10BD7400002000BFFEE784
:10BEE00010B5052006490870FCF726FA352801DA56
:10BEF000FF2010BD034804490860FCF7FCFAF8E78E
:10BF00005E010020D8D500208401002008B5012161
:10BF1000682002F021F84FF44060ADF800001020D6
:10BF20008DF8030003208DF8020069460B4800F0ED
:10BF300089FC4FF43060ADF800006946084800F015
:10BF400081FC4FF48060ADF8000048208DF80300BC
:10BF50006946034800F076FC08BD0000000C014073
:10BF60000014014001462F2903DD3A2901DA01209E
:10BF700070470020FCE710B501F0FEFF01F04CF91E
:10BF800000F026F810BD10B502F074FA0CF04CFD6C
:10BF900010BD000070B50C480FF02CFD054675B1C2
:10BFA0000A4801F0A6FE044628460EF097FF064612
:10BFB00001F09FFE001BB0F5966F00D270BD00200F
:10BFC00003F06CFF00BFF9E7FCA500201001002082
:10BFD00010B501F0A5FF00F0DDFB03F065FA03F0FA
:10BFE00081FA03F01DFB10BDF0B503460C46154663
:10BFF00000220C2C05DC1F2D03DC002C01DD002DA4
:10C0000001DC0020F0BD012119E0DE1703EB96767C
:10C01000B610A3EB86062EB9642693FBF6F706FB53
:10C02000173636B94FF4C87693FBF6F706FB17368A
:10C0300016B902F5B77201E002F26D12491C99427D
:10C04000E3D3012120E0DE1703EB9676B610A3EBD5
:10C0500086062EB9642693FBF6F706FB173636B92B
:10C060004FF4C87693FBF6F706FB17363EB9022964
:10C0700009D1084850F821001044421C03E005484B
:10C0800050F821000244491CA142DCD32A44104646
:10C09000B8E700004CCC010870B5034614460129EE
:10C0A00001D0022904D101F10C00C1B2581E83B2A3
:10C0B000481C00EB40000525B0FBF5F0022505FB10
:10C0C000010018441A46DD1703EB957500EBA50037
:10C0D000642593FBF5F5401B4FF4C87593FBF5F50C
:10C0E000284420440725B0FBF5F605FB1600401C4C
:10C0F00070BD70470268C1F80B204278C2F3C102DC
:10C10000CA734278C2F341020A74427802F0010213
:10C1100082F001024A74827812114A828278C2F354
:10C1200081028A828278C2F340028A75827802F0A4
:10C130000102CA75C27892090A76C278C2F3011266
:10C140004A76C278C2F3C0028A76C278C2F380020D
:10C15000CA76C27802F003020A77704730B58FB012
:10C160000024342102A8FEF703FB3148016831485E
:10C1700000680EF062F93048FEF715FAC5B22F4894
:10C180000068007838B939202D4908710D20887170
:10C190003020487106E00320294908711620887173
:10C1A00020204871052026490872234902A8FEF77D
:10C1B000CBF92C4604E0202002A90855601CC4B22B
:10C1C0001F488079A042F6DC002002A908551B48D0
:10C1D0000068007848B1194800680078022804D047
:10C1E000164800680078042808D10020144A0090FE
:10C1F00093795179107902AA0CF0FEFC10488079ED
:10C20000A84213DA0C480E49086000204872C87131
:10C21000042008720748006803F094FD0449086090
:10C220000846006810B10748096848600FB030BD83
:10C230008C0000208000002004B200209800002024
:10C2400070B20020ADAA01087047000010B50820A8
:10C2500000F022F80446012C04D10349087008209C
:10C2600000F014F810BD00003701002010B54FF4A5
:10C27000407000F011F80446012C05D103F088FC51
:10C280004FF4407000F002F810BD00000149086052
:10C290007047000014040140014600200022074BB3
:10C2A0001B6803EA0102054B14331B680B4013B1F2
:10C2B0000AB1012000E000207047000000040140A6
:10C2C0008179002946D02A49096802689143284AA1
:10C2D0001160111D096802689143254A121D116001
:10C2E0000179244A1144D1F80014026811430279FB
:10C2F000204B1A44C2F800141D490831096802682D
:10C3000091431B4A08321160111D0968026891436C
:10C31000174A0C321160417910290ED1111F09689A
:10C3200002681143124A08321160111D096802683F
:10C3300011430F4A0C32116018E041790D4A114443
:10C34000D1F800140268114342790A4B1A44C2F82A
:10C3500000140BE00179074A1144D1F80014026877
:10C3600091430279034B1A44C2F80014704700004D
:10C3700000040140000001402DE9F04180460E46D6
:10C380001746B8F1000F04D03046FEF70CF98419B7
:10C3900004E02E213046FEF7FBF804465C213046CF
:10C3A000FEF7F6F805460DB9354600E06D1C24B9D8
:10C3B0003046FEF7F8F8841900E0641E601B421C4A
:10C3C00029463846FEF7FBF90021601B401C395412
:10C3D000BDE8F08170B50546042440F6FF7000F01A
:10C3E00073F80446042C19D10D48006940F002008E
:10C3F0000B49086108464561006940F0400008614A
:10C4000040F6FF7000F060F80446012C06D00448A6
:10C41000006941F6FD71084001490861204670BD80
:10C420000020024004200B49C96801F0010109B154
:10C4300001200EE00749C96801F0040109B102209A
:10C4400007E00449C96801F0100109B1032000E0C8
:10C4500004207047002002400348006940F080003B
:10C4600001490861704700000020024070B5054690
:10C470000E4604240F2000F027F80446042C13D1A4
:10C480000A48006940F00100084908612E800F2029
:10C4900000F01AF80446012C06D00448006941F661
:10C4A000FE71084001490861204670BD002002402D
:10C4B00002480349486003484860704723016745C4
:10C4C00000200240AB89EFCD70B504460425FFF78C
:10C4D000A9FF054605E004F015FBFFF7A3FF05469D
:10C4E000641E012D01D1002CF5D104B90525284683
:10C4F00070BD10B504460020206020712C2104F18D
:10C500002000FEF735F9202104F14C00FEF730F948
:10C5100001215B2001550321602001530421642087
:10C520000155652001550221682001550020E06673
:10C5300004F1700000F0C8FE04F1F00000F0FAFE13
:10C5400010BD2DE9F84306460F461446202120462B
:10C55000FEF70EF93068009000253CE0684601F0D7
:10C56000F1F838B321466846FFF7C4FD204600F0D5
:10C5700093FB28441FFA80F83146404603F096F9B1
:10C58000C0B1012020706560204600F085FB20814D
:10C59000291D88B2314601F061F9A072204600F0F1
:10C5A000CCFC28441FFA80F83A463146404600F059
:10C5B000C9F813E09DF801008DF800009DF8020015
:10C5C0008DF801009DF803008DF80200281D305CF5
:10C5D0008DF803006D1CB5F5D86FBFDD00BFBDE859
:10C5E000F88300007FB582B006460D461C46BDF8B4
:10C5F00010004FF6FF7188420CD1154890F82010BA
:10C60000243000EBC1008088C0F30E00401E80B2D1
:10C6100004900EE00E4890F82010243000EBC1008A
:10C620008088C0F30E00BDF81010884201DC0020A5
:10C6300004900749009491F82020243151F83200E9
:10C64000034B04AA29460EF055F906B070BD000050
:10C65000D80100202DE9F04F9FB08346894614464B
:10C660001D46DDE928A6002701A814903220159068
:10C67000594616A807F08BFD002860D158E09DF8B8
:10C68000410000B95AE09DF8400000F0100048BB9E
:10C690000DF1410001F092F8002849D00DF1410060
:10C6A00008F093F98046C84514D12DB10D220DF143
:10C6B00041012846FEF783F806B13780BAF1000F32
:10C6C00004D0322201A95046FEF779F801201FB0AC
:10C6D000BDE8F08F1CB15CB3B8F1000F28D0781C16
:10C6E00087B225E00DF1410001F055F800B30DF1DE
:10C6F000410008F06AF98046C84512D12DB10D22DB
:10C700000DF141012846FEF75AF806B13780BAF11B
:10C71000000F04D0322201A95046FEF750F8012044
:10C72000D5E71CB124B1B8F1000F01D0781C87B255
:10C730000EA916A807F04CFE0028A0D000BF0020CC
:10C74000C5E7000070B504460D4616462C2130465C
:10C75000FEF70EF8281904220AA1FDF7C9FE20B938
:10C7600032462946204600F0FBFB2819042207A187
:10C77000FDF7BEFE20B932462946204600F04EFAAB
:10C7800070BD000058696E670000000056425249B3
:10C790000000000008B503208DF802004FF400707F
:10C7A000ADF8000018208DF803006946144800F029
:10C7B00049F84FF48060ADF8000048208DF8030080
:10C7C00069460F4800F03EF869460D4800F03AF817
:10C7D00003208DF802000420ADF8000018208DF829
:10C7E00003006946064800F02DF80820ADF8000067
:10C7F00048208DF803006946014800F023F808BD81
:10C800000008014030B500228B071C0F0F2303FAEC
:10C8100004F20B4B8C1053F824309343084C8D10CA
:10C8200044F8253023468C1053F824308C07240F0D
:10C8300000FA04F42343024C8D1044F8253030BD37
:10C84000080001402DE9F0410246002500260020A5
:10C8500000230024002791F803C00CF00F0591F885
:10C8600003C00CF0100CBCF1000F03D091F802C013
:10C870004CEA050591F800C0BCF1000F31D01468F6
:10C8800000202BE04FF0010C0CFA00F3B1F800C0CF
:10C890000CEA03069E4220D183004FF00F0C0CFAE5
:10C8A00003F7BC4305FA03FC4CEA040491F803C007
:10C8B000BCF1280F06D14FF0010C0CFA00FCC2F8B5
:10C8C00014C00AE091F803C0BCF1480F05D14FF045
:10C8D000010C0CFA00FCC2F810C0401C0828D1D38F
:10C8E0001460B1F800C0BCF1FF0F34DD54680020C3
:10C8F0002EE000F1080C4FF0010808FA0CF3B1F833
:10C9000000C00CEA03069E4221D183004FF00F0CB9
:10C910000CFA03F7BC4305FA03FC4CEA040491F853
:10C9200003C0BCF1280F05D100F1080C08FA0CF87F
:10C93000C2F8148091F803C0BCF1480F07D100F190
:10C94000080C4FF0010808FA0CF8C2F81080401CDF
:10C950000828CED35460BDE8F0810146886880B2D3
:10C9600070470246002093680B400BB1012000E0A5
:10C97000002070474161704701617047C160704796
:10C9800030B5ADF51D7D04462046FDF70CFE001FB9
:10C990000519042213A12846FDF7AAFD38B921463E
:10C9A0000BA80CF067FF26980DF51D7D30BD042205
:10C9B0000EA12846FDF79CFD28B9214607A80FF0D7
:10C9C000B1FF0A98F0E704220AA12846FDF790FD7E
:10C9D00028B9214668460FF0F4FF0498E4E73C20AC
:10C9E000E2E700002E4D5033000000002E57415664
:10C9F000000000002E574D41000000000146C87B9A
:10CA0000044A02EBC0100A7C00EB42104A8A30F85C
:10CA100012007047A43403080146CA7B032A06D1DA
:10CA20000A7C032A01D130200CE090200AE00A7C25
:10CA3000032A01D1182005E00A7C022A01D19020A6
:10CA400000E048207047000030B50246481E114CF7
:10CA5000235C02291CD1DAB1642492FBF4F504FBB7
:10CA6000152434B1D41702EB9474A410A2EB8404FF
:10CA700064B1642492FBF4F504FB152444B94FF42B
:10CA8000C87492FBF4F504FB15240CB9581CC3B20E
:10CA9000184630BD590000202DE9F04790B00746F8
:10CAA0000D46164638460EF016FA04460CB1052C13
:10CAB00005DD00202870284610B0BDE8F087601E14
:10CAC00000EBC0002749421827A128460EF04CF879
:10CAD000012C16D0022C34D138460EF0F9F98046DC
:10CAE000002003A903460122CDE9001041461F485A
:10CAF000FFF7B0FD20B1112203A92846FDF7E6FC9F
:10CB00001FE038460EF0F0F9814648460FF01EFA55
:10CB10008046424616A103A80EF026F803A928462F
:10CB2000FDF7ABFD38460EF0E2F9824603AA514606
:10CB300048460FF025FA804641462846FDF79DFD00
:10CB400000BF00BF2846FDF72EFDC4B203E0202041
:10CB50002855601CC4B2B442F9DB0020A855284611
:10CB6000AAE700003FCE01082573200073CD01081D
:10CB70002020202020257300F0B591B007460D46F7
:10CB800016461C4600200690079006B130800CB176
:10CB900000202080394608A807F0F9FA00283AD189
:10CBA0002FE09DF8090000B931E09DF809002E281A
:10CBB00000D126E09DF8080000F0100080B90DF1CA
:10CBC000090000F0FBFDD8B12DB1CDB10DF1090088
:10CBD00007F0FBFEA0B19CB12088401C20800FE034
:10CBE0000DF1090000F0D7FD50B12DB145B10DF1A7
:10CBF000090007F0EAFE18B114B12088401C20801B
:10CC000000BF694608A807F0E3FB0028C9D000BFB1
:10CC1000012011B0F0BD0020FBE7000070B5044614
:10CC20000D4616462C213046FDF7A2FD012030703E
:10CC300017A00068C6F8010004F10900285C3074F0
:10CC400004F10A00285C010604F10B00285C01EBEA
:10CC5000004104F10C00285C01EB002104F10D00FF
:10CC6000285C0844F06004F10E00285C010604F121
:10CC70000F00285C01EB004104F11000285C01EB7F
:10CC8000002104F11100285C0844B06070BD000070
:10CC90005642524900000000F0B503461846FFF71F
:10CCA000BBFE04461846FFF7A9FE0546184600F0ED
:10CCB000C5F80646184600F0A1F8074604FB05F043
:10CCC0004FF47A71484390FBF6F0384480B2F0BDDF
:10CCD00010B503460A4600210CE0988901248C40D7
:10CCE000204018B101F13100505401E0202050548F
:10CCF000481CC1B20629F0DB062010BD2DE9F04723
:10CD000090B007460D46164638460EF0E4F8044645
:10CD10000CB1052C05DD00202870284610B0BDE8B8
:10CD2000F087601E00EBC0002749421827A1284663
:10CD30000DF01AFF012C16D0022C34D138460EF01B
:10CD4000C7F88046002003A903460122CDE9001060
:10CD500041461F48FFF77EFC20B1324603A9284612
:10CD6000FDF72DFD1FE038460EF0BEF8814648461F
:10CD70000FF0ECF88046424614A103A80DF0F4FE33
:10CD800003A92846FDF779FC38460EF0B0F8824634
:10CD900003AA514648460FF0F3F88046414628461C
:10CDA000FDF76BFC00BF00BF2846FDF7FCFBC4B2DB
:10CDB00003E020202855601CC4B2B442F9DB0020F7
:10CDC000A8552846AAE700003FCE010825730000B9
:10CDD00073CD010810B502460B460024012109E07D
:10CDE00002F0010018B19C4201D1084610BD52105A
:10CDF000481CC1B21129F3DB0020F7E701468A7D08
:10CE000032B10A7C032A01D1042002E0012000E0B3
:10CE10000020704770B5054600240BE0204603F063
:10CE200059F818B104F13100285501E020202855A7
:10CE3000601CC4B2062CF1DB062070BD0146C87B25
:10CE4000034A02EBC0008A8A30F8120070470000E3
:10CE5000A43603082DE9F0410446144D28792070CA
:10CE6000207800B3124800F027FF8046284600F0E3
:10CE700023FFA8EB0006002E0FDD2879471E6879F6
:10CE80003844B04202DC002020700CE00120207009
:10CE90006879F11B401A607005E016B96879607016
:10CEA00001E000202070BDE8F0810000FCB100200E
:10CEB0000C01002010B509480DF085FB58B107485A
:10CEC000807807490978884205D004488078044969
:10CED0000870012010BD0020FCE7000010010020B8
:10CEE0001401002001468A795305CA7903EB823385
:10CEF0000A7A03EBC2134A7A1A4402F10A004A7909
:10CF000002F01002102A00D10A30CA68824200DA08
:10CF10000020704701467D20405C10B97E20405CB7
:10CF200038B97D20405C202805D17E20405C202837
:10CF300001D0022070470120FCE70146CA7B032A8A
:10CF400006D10A7E032A01D0242007E0152005E03F
:10CF50000A7E032A01D0152000E00D207047000052
:10CF600070B504460D4616462C213046FDF700FCF0
:10CF70000120307025A00068C6F8010004F1080007
:10CF8000285C010604F10900285C01EB004104F172
:10CF90000A00285C01EB002104F10B00285C084426
:10CFA000B06004F10C00285C010604F10D00285C5F
:10CFB00001EB004104F10E00285C01EB002104F1BB
:10CFC0000F00285C0844F06004F17700285C30749E
:10CFD00004F17800285C707404F17900295CB17464
:10CFE000401C295CF174401C295C3175401C295C93
:10CFF0007175401C295CB175401C295CF175401CA1
:10D00000295C31760021717670BD000058696E6729
:10D010000000000001460A2091FBF0F200FB121014
:10D02000642291FBF2F302FB13120A2392FBF3F248
:10D0300040EA0210C0B2704700BFFEE770B5044678
:10D04000012504220FA12046FDF752FA00B1002568
:10D0500004220EA104F10800FDF74AFA00B10025F0
:10D0600004220CA104F10C00FDF742FA00B10025E6
:10D07000E08A012803D0E08A022800D00025284653
:10D0800070BD000052494646000000005741564519
:10D0900000000000666D74200000000070B50446BA
:10D0A0000D46002602F022F9204601F0E1FE08B10B
:10D0B000002070BD284601F0DBFE08B10020F8E733
:10D0C00002F014F944F0010001F0D2FE08B1002092
:10D0D000EFE7012001F082F9064602F027F9304619
:10D0E000E7E72DE9F04180460C4615461E46069FAF
:10D0F00002F0FCF8404601F0BBFE10B10020BDE894
:10D10000F0816DB1012D05DD201201F0B1FE08B1F5
:10D110000020F4E7E0B201F0ABFE08B10020EEE73A
:10D1200002F0E4F848F0010001F0A2FE08B100208E
:10D13000E5E706E0384601F051F906F8010B781EE4
:10D14000C7B2002FF6D102F0F1F80120D7E770B591
:10D1500004460D46164600F057F802F0C7F804F0F2
:10D16000FE04204601F084FE58B9284601F080FEF6
:10D1700038B9304601F07CFE18B902F0D7F801202A
:10D1800070BD02F0D3F80020FAE72DE9F0478046A1
:10D190000D4616461C46DDF8209000F035F802F0EA
:10D1A000A5F808F0FE08404601F062FE40BB76B1EB
:10D1B000012E06DD281201F05BFE10B10020BDE853
:10D1C000F087E8B201F054FE08B10020F7E700272D
:10D1D0000AE014F8010B01F04BFE18B102F0A6F8BA
:10D1E0000020ECE7781CC7B2A9F10100B842F0DCDE
:10D1F000207801F03DFE18B902F098F80120DEE732
:10D2000002F094F80020DAE7002002E000BF411CA1
:10D21000C8B21428FADB704710B54FF440500C49DF
:10D220000880032088701020C8700A48FFF70AFBA6
:10D230004FF480510748FFF79FFBFFF7E5FF4FF4DE
:10D2400000510448FFF798FBFFF7DEFF10BD000018
:10D25000FE0000200014014070B5A0B004460D4649
:10D26000204600F031F86946284601F01DF80646D0
:10D270002EB3032213A16846FDF73AF9F8B901204D
:10D2800020706846FFF746FE60706078012807D17D
:10D290001E220DF1610104F16000FDF7FAF90AE0C8
:10D2A0001C220DF1610104F16000FDF7F2F99DF817
:10D2B0007E0084F87E009DF87F0084F87F00304671
:10D2C00020B070BD54414700002101700121417020
:10D2D0000021817080F8201080F83E1080F85C10EA
:10D2E00080F8601080F87E10FF2180F87F10704772
:10D2F00070B5BEB004460D46204600F01BF86946E6
:10D30000284600F047FF064676B1032208A168468A
:10D31000FDF7EEF840B9012020709DF80300607021
:10D320006846FFF7DFFD606030463EB070BD00002C
:10D330004944330010B504464FF4AC712046FDF764
:10D3400017FA10BD4CF6CC40014908607047000048
:10D35000003000404AF6AA200149086070470000EA
:10D360000030004001494860704700000030004034
:10D3700001498860704700000030004001490860A2
:10D38000704700000030004070B505460748D0F8EF
:10D390004842002060700649201D0DF072FD0420F7
:10D3A000207103480838807DA07070BD2CD1010821
:10D3B00060B2002070B506460E48D0F888410020C3
:10D3C0006070E07020700C480DF01BFD58B10C200F
:10D3D000A070217808480DF00BFD05462946201D58
:10D3E0000DF06EFC05E00D20A07000206060A060D4
:10D3F000E06070BD2CD101081C72002070B506469B
:10D400000E48D0F8A04100206070E07020700C48F9
:10D4100007F0BDFC58B10420A0702178084807F03F
:10D42000ADFC05462946201D07F024FC05E005203B
:10D43000A0700449201D07F03BFC70BD2CD10108F1
:10D440000C7500200C010020034AD2F87011002254
:10D450000A7002784A7170472CD101087CB50546E4
:10D460001248D0F860426560D0F8E80120600020E2
:10D47000216881F82400216881F82500206800F1E6
:10D480002603002201210A48FFF776FB60680DF0B1
:10D490001FFD06462068283000210B460122CDE9F9
:10D4A000001031460248FFF7D5F87CBD2CD10108A9
:10D4B00073CD010870B505460E48D0F87842A560D6
:10D4C00000202070607820F03F006070A0680DF0B0
:10D4D0000BFD617860F387116170A0680DF007FDA6
:10D4E00060606078800920B90A216068B0FBF1F0C3
:10D4F000606070BD2CD101080146034AD2F8E000FB
:10D5000000220270704700002CD1010870B5064659
:10D510000E48D0F8D04100206070E07020700C48B8
:10D520000DF031F958B10320A070217808480DF0B2
:10D5300021F905462946201D0CF095FF05E0042041
:10D54000A0700321201D0CF0B4FF70BD2CD1010888
:10D550006C9400200146024A106D00220270704750
:10D560002CD101080146024A906B002202707047DC
:10D570002CD101080146024A906E002202707047C9
:10D580002CD101080146024A106A0022027070473D
:10D590002CD101080146044AD2F8D80200220270B8
:10D5A00042700A78827070472CD101080146054A02
:10D5B000D2F8C002016000224271027102689289B1
:10D5C000C28070472CD101080146034AD2F81001ED
:10D5D00000220270704700002CD101082DE9F05F95
:10D5E00006462648D0F8904235462878112804D0BF
:10D5F00012280AD013281AD110E0AF6807F10801E9
:10D6000004F108000DF03DFC13E0D5F8088008F1A6
:10D610000C0104F108000DF034FC0AE0D5F8089084
:10D6200009F10C0104F108000DF02BFC01E0BDE84C
:10D63000F09F00BF68686060E97801EB4101C0229B
:10D64000A2EB4101A1F1180000EBD071C1F3470139
:10D650002170E878607004F108000DF036FC824615
:10D6600004F108000DF03AFC83465246594604F195
:10D67000160000F031FB00BFD9E700002CD10108F3
:10D680000146034AD2F828010022027070470000C8
:10D690002CD101080146034AD2F8F800002202709A
:10D6A000427070472CD101080146054AD2F8580152
:10D6B000002202714271034A126802607047000042
:10D6C0002CD101080C01002070B50546AE68094850
:10D6D000D0F8A842002084F8500B84F8510BA02108
:10D6E00020460DF0F9FC3246214603480DF09CFD22
:10D6F00070BD00002CD101080C15002070B5064645
:10D700000E48D0F8B84100206070E07020700C48DE
:10D710000DF039F858B10320A070217808480DF0B9
:10D7200029F805462946201D0CF09DFE05E0042041
:10D73000A0700221201D0CF0BCFE70BD2CD1010890
:10D74000DC82002001460878FF2820D1487800F0CC
:10D75000E000E0281BD14878C0F3C100012816D0B2
:10D760004878C0F3410090B1887800F0F000F028CC
:10D770000DD0887800F0F00048B18878C0F38100BF
:10D78000032804D0C87800F00300022801D100204B
:10D7900070470120FCE700B502461078FEF7E2FB77
:10D7A00048B15078FEF7DEFB28B19078FEF7DAFB3F
:10D7B00008B1012000BD0020FCE7000070B5044660
:10D7C0002046FCF7F0FE001F051904220AA1284696
:10D7D000FCF78EFE58B1042209A12846FCF788FE0A
:10D7E00028B1042208A12846FCF782FE08B90120CE
:10D7F00070BD0020FCE700002E4D503300000000FB
:10D800002E574D41000000002E57415600000000E9
:10D810000146486800281BDD0E4A4868904217DA26
:10D820000889012802D00889022811D1C868B0F5FA
:10D83000FA5F0DDB084AC868904209DC08690028D5
:10D8400006DD49F640420869904201DA012070473E
:10D850000020FCE700E20400007701000246885C3B
:10D8600080B9501C085C68B9901C085C50B9D01C89
:10D87000085C38B9101D085C20B9501D085C08B957
:10D88000012070470020FCE710B50F480088D0B198
:10D890000D480088401E0C4908800C48006800783C
:10D8A00088B904F013FB0848008860B9FEF772FBE2
:10D8B00002F0B4FB022801D10CF078FC002002F049
:10D8C000B3FB03F021FD10BD7C0000209800002078
:10D8D00010B545F25550FFF751FD0620FFF742FD08
:10D8E0004FF47A60FFF744FDFFF734FDFFF72AFDA0
:10D8F00010BD000010B50121502000F02DFB0620C6
:10D90000174908804820C870032088701548FEF722
:10D9100099FF4FF42040124908801348FEF792FF08
:10D9200058200F4908801020C8700E48FEF78AFF63
:10D930004FF480400A4908800B48FEF783FF4FF4FC
:10D940008050074908804820C8700848FEF77AFFD1
:10D950002020034908800348FEF774FF10BD000033
:10D96000FE000020001801400010014000080140A6
:10D9700010B50348FEF7F1FF0446E0B210BD000009
:10D980000014014070B504460648FEF7E6FF054660
:10D99000284664F30700054629460248FEF7EEFFD5
:10D9A00070BD00000014014010B54FF40070034931
:10D9B0000860401008600FF03BF810BD140C0140E7
:10D9C00010B54FF40070044908604010091F08604A
:10D9D0000FF02EF810BD0000140C014010B54FF4EC
:10D9E0000070044908604010091D08600FF020F81D
:10D9F00010BD0000100C014010B50C220E490F485C
:10DA000001F05CF90C480078552814D055200A49DB
:10DA1000087001F108000DF06DFA0321064841730A
:10DA20000420054908720020887536220421024826
:10DA3000001DFCF773FE10BD58B2002000980408CA
:10DA400000B5ADF50B7D0020009001220C4902A825
:10DA500006F0EAFA70B901AB0222694602A806F0A4
:10DA6000D2FB20B90198022801D00020009002A822
:10DA700006F0E2F9BDF800000DF50B7D00BD0000D9
:10DA8000490000202DE9F04104460D4604F0C00095
:10DA900020B1402805D0802809D105E0FFF784FF98
:10DAA00005E0FFF78DFF02E0FFF798FF00BF00BF22
:10DAB00004F03F0040F0400605F0070040F0B807D2
:10DAC0000EF0B6FF8020164908604020086005204F
:10DAD0000AF09CFE20201249091F08603846FFF713
